{
  "_format": "hh-sol-artifact-1",
  "contractName": "NFTSTORE",
  "sourceName": "contracts/NFTSTORE.sol",
  "abi": [
    {
      "inputs": [],
      "stateMutability": "nonpayable",
      "type": "constructor"
    },
    {
      "inputs": [
        {
          "internalType": "address",
          "name": "sender",
          "type": "address"
        },
        {
          "internalType": "uint256",
          "name": "tokenId",
          "type": "uint256"
        },
        {
          "internalType": "address",
          "name": "owner",
          "type": "address"
        }
      ],
      "name": "ERC721IncorrectOwner",
      "type": "error"
    },
    {
      "inputs": [
        {
          "internalType": "address",
          "name": "operator",
          "type": "address"
        },
        {
          "internalType": "uint256",
          "name": "tokenId",
          "type": "uint256"
        }
      ],
      "name": "ERC721InsufficientApproval",
      "type": "error"
    },
    {
      "inputs": [
        {
          "internalType": "address",
          "name": "approver",
          "type": "address"
        }
      ],
      "name": "ERC721InvalidApprover",
      "type": "error"
    },
    {
      "inputs": [
        {
          "internalType": "address",
          "name": "operator",
          "type": "address"
        }
      ],
      "name": "ERC721InvalidOperator",
      "type": "error"
    },
    {
      "inputs": [
        {
          "internalType": "address",
          "name": "owner",
          "type": "address"
        }
      ],
      "name": "ERC721InvalidOwner",
      "type": "error"
    },
    {
      "inputs": [
        {
          "internalType": "address",
          "name": "receiver",
          "type": "address"
        }
      ],
      "name": "ERC721InvalidReceiver",
      "type": "error"
    },
    {
      "inputs": [
        {
          "internalType": "address",
          "name": "sender",
          "type": "address"
        }
      ],
      "name": "ERC721InvalidSender",
      "type": "error"
    },
    {
      "inputs": [
        {
          "internalType": "uint256",
          "name": "tokenId",
          "type": "uint256"
        }
      ],
      "name": "ERC721NonexistentToken",
      "type": "error"
    },
    {
      "anonymous": false,
      "inputs": [
        {
          "indexed": true,
          "internalType": "address",
          "name": "owner",
          "type": "address"
        },
        {
          "indexed": true,
          "internalType": "address",
          "name": "approved",
          "type": "address"
        },
        {
          "indexed": true,
          "internalType": "uint256",
          "name": "tokenId",
          "type": "uint256"
        }
      ],
      "name": "Approval",
      "type": "event"
    },
    {
      "anonymous": false,
      "inputs": [
        {
          "indexed": true,
          "internalType": "address",
          "name": "owner",
          "type": "address"
        },
        {
          "indexed": true,
          "internalType": "address",
          "name": "operator",
          "type": "address"
        },
        {
          "indexed": false,
          "internalType": "bool",
          "name": "approved",
          "type": "bool"
        }
      ],
      "name": "ApprovalForAll",
      "type": "event"
    },
    {
      "anonymous": false,
      "inputs": [
        {
          "indexed": false,
          "internalType": "uint256",
          "name": "_fromTokenId",
          "type": "uint256"
        },
        {
          "indexed": false,
          "internalType": "uint256",
          "name": "_toTokenId",
          "type": "uint256"
        }
      ],
      "name": "BatchMetadataUpdate",
      "type": "event"
    },
    {
      "anonymous": false,
      "inputs": [
        {
          "indexed": false,
          "internalType": "uint256",
          "name": "_tokenId",
          "type": "uint256"
        }
      ],
      "name": "MetadataUpdate",
      "type": "event"
    },
    {
      "anonymous": false,
      "inputs": [
        {
          "indexed": true,
          "internalType": "address",
          "name": "from",
          "type": "address"
        },
        {
          "indexed": true,
          "internalType": "address",
          "name": "to",
          "type": "address"
        },
        {
          "indexed": true,
          "internalType": "uint256",
          "name": "tokenId",
          "type": "uint256"
        }
      ],
      "name": "Transfer",
      "type": "event"
    },
    {
      "inputs": [
        {
          "internalType": "address",
          "name": "to",
          "type": "address"
        },
        {
          "internalType": "uint256",
          "name": "tokenId",
          "type": "uint256"
        }
      ],
      "name": "approve",
      "outputs": [],
      "stateMutability": "nonpayable",
      "type": "function"
    },
    {
      "inputs": [
        {
          "internalType": "address",
          "name": "owner",
          "type": "address"
        }
      ],
      "name": "balanceOf",
      "outputs": [
        {
          "internalType": "uint256",
          "name": "",
          "type": "uint256"
        }
      ],
      "stateMutability": "view",
      "type": "function"
    },
    {
      "inputs": [
        {
          "internalType": "string",
          "name": "_tokenURI",
          "type": "string"
        },
        {
          "internalType": "uint256",
          "name": "_price",
          "type": "uint256"
        }
      ],
      "name": "createToken",
      "outputs": [
        {
          "internalType": "uint256",
          "name": "",
          "type": "uint256"
        }
      ],
      "stateMutability": "nonpayable",
      "type": "function"
    },
    {
      "inputs": [
        {
          "internalType": "uint256",
          "name": "tokenId",
          "type": "uint256"
        }
      ],
      "name": "executeSale",
      "outputs": [],
      "stateMutability": "payable",
      "type": "function"
    },
    {
      "inputs": [],
      "name": "getAllListedNFTs",
      "outputs": [
        {
          "components": [
            {
              "internalType": "uint256",
              "name": "tokenId",
              "type": "uint256"
            },
            {
              "internalType": "address payable",
              "name": "owner",
              "type": "address"
            },
            {
              "internalType": "address payable",
              "name": "seller",
              "type": "address"
            },
            {
              "internalType": "uint256",
              "name": "price",
              "type": "uint256"
            },
            {
              "internalType": "bool",
              "name": "isListed",
              "type": "bool"
            }
          ],
          "internalType": "struct NFTSTORE.NFTListing[]",
          "name": "",
          "type": "tuple[]"
        }
      ],
      "stateMutability": "view",
      "type": "function"
    },
    {
      "inputs": [
        {
          "internalType": "uint256",
          "name": "tokenId",
          "type": "uint256"
        }
      ],
      "name": "getApproved",
      "outputs": [
        {
          "internalType": "address",
          "name": "",
          "type": "address"
        }
      ],
      "stateMutability": "view",
      "type": "function"
    },
    {
      "inputs": [],
      "name": "getCurrentTokenId",
      "outputs": [
        {
          "internalType": "uint256",
          "name": "",
          "type": "uint256"
        }
      ],
      "stateMutability": "view",
      "type": "function"
    },
    {
      "inputs": [],
      "name": "getListingFeePercent",
      "outputs": [
        {
          "internalType": "uint256",
          "name": "",
          "type": "uint256"
        }
      ],
      "stateMutability": "view",
      "type": "function"
    },
    {
      "inputs": [],
      "name": "getMyNFTs",
      "outputs": [
        {
          "components": [
            {
              "internalType": "uint256",
              "name": "tokenId",
              "type": "uint256"
            },
            {
              "internalType": "address payable",
              "name": "owner",
              "type": "address"
            },
            {
              "internalType": "address payable",
              "name": "seller",
              "type": "address"
            },
            {
              "internalType": "uint256",
              "name": "price",
              "type": "uint256"
            },
            {
              "internalType": "bool",
              "name": "isListed",
              "type": "bool"
            }
          ],
          "internalType": "struct NFTSTORE.NFTListing[]",
          "name": "",
          "type": "tuple[]"
        }
      ],
      "stateMutability": "view",
      "type": "function"
    },
    {
      "inputs": [
        {
          "internalType": "uint256",
          "name": "_tokenId",
          "type": "uint256"
        }
      ],
      "name": "getNFTListing",
      "outputs": [
        {
          "components": [
            {
              "internalType": "uint256",
              "name": "tokenId",
              "type": "uint256"
            },
            {
              "internalType": "address payable",
              "name": "owner",
              "type": "address"
            },
            {
              "internalType": "address payable",
              "name": "seller",
              "type": "address"
            },
            {
              "internalType": "uint256",
              "name": "price",
              "type": "uint256"
            },
            {
              "internalType": "bool",
              "name": "isListed",
              "type": "bool"
            }
          ],
          "internalType": "struct NFTSTORE.NFTListing",
          "name": "",
          "type": "tuple"
        }
      ],
      "stateMutability": "view",
      "type": "function"
    },
    {
      "inputs": [
        {
          "internalType": "address",
          "name": "owner",
          "type": "address"
        },
        {
          "internalType": "address",
          "name": "operator",
          "type": "address"
        }
      ],
      "name": "isApprovedForAll",
      "outputs": [
        {
          "internalType": "bool",
          "name": "",
          "type": "bool"
        }
      ],
      "stateMutability": "view",
      "type": "function"
    },
    {
      "inputs": [],
      "name": "listingFeePercent",
      "outputs": [
        {
          "internalType": "uint256",
          "name": "",
          "type": "uint256"
        }
      ],
      "stateMutability": "view",
      "type": "function"
    },
    {
      "inputs": [],
      "name": "marketplaceOwner",
      "outputs": [
        {
          "internalType": "address payable",
          "name": "",
          "type": "address"
        }
      ],
      "stateMutability": "view",
      "type": "function"
    },
    {
      "inputs": [],
      "name": "name",
      "outputs": [
        {
          "internalType": "string",
          "name": "",
          "type": "string"
        }
      ],
      "stateMutability": "view",
      "type": "function"
    },
    {
      "inputs": [
        {
          "internalType": "uint256",
          "name": "tokenId",
          "type": "uint256"
        }
      ],
      "name": "ownerOf",
      "outputs": [
        {
          "internalType": "address",
          "name": "",
          "type": "address"
        }
      ],
      "stateMutability": "view",
      "type": "function"
    },
    {
      "inputs": [
        {
          "internalType": "address",
          "name": "from",
          "type": "address"
        },
        {
          "internalType": "address",
          "name": "to",
          "type": "address"
        },
        {
          "internalType": "uint256",
          "name": "tokenId",
          "type": "uint256"
        }
      ],
      "name": "safeTransferFrom",
      "outputs": [],
      "stateMutability": "nonpayable",
      "type": "function"
    },
    {
      "inputs": [
        {
          "internalType": "address",
          "name": "from",
          "type": "address"
        },
        {
          "internalType": "address",
          "name": "to",
          "type": "address"
        },
        {
          "internalType": "uint256",
          "name": "tokenId",
          "type": "uint256"
        },
        {
          "internalType": "bytes",
          "name": "data",
          "type": "bytes"
        }
      ],
      "name": "safeTransferFrom",
      "outputs": [],
      "stateMutability": "nonpayable",
      "type": "function"
    },
    {
      "inputs": [
        {
          "internalType": "address",
          "name": "operator",
          "type": "address"
        },
        {
          "internalType": "bool",
          "name": "approved",
          "type": "bool"
        }
      ],
      "name": "setApprovalForAll",
      "outputs": [],
      "stateMutability": "nonpayable",
      "type": "function"
    },
    {
      "inputs": [
        {
          "internalType": "bytes4",
          "name": "interfaceId",
          "type": "bytes4"
        }
      ],
      "name": "supportsInterface",
      "outputs": [
        {
          "internalType": "bool",
          "name": "",
          "type": "bool"
        }
      ],
      "stateMutability": "view",
      "type": "function"
    },
    {
      "inputs": [],
      "name": "symbol",
      "outputs": [
        {
          "internalType": "string",
          "name": "",
          "type": "string"
        }
      ],
      "stateMutability": "view",
      "type": "function"
    },
    {
      "inputs": [
        {
          "internalType": "uint256",
          "name": "tokenId",
          "type": "uint256"
        }
      ],
      "name": "tokenURI",
      "outputs": [
        {
          "internalType": "string",
          "name": "",
          "type": "string"
        }
      ],
      "stateMutability": "view",
      "type": "function"
    },
    {
      "inputs": [
        {
          "internalType": "address",
          "name": "from",
          "type": "address"
        },
        {
          "internalType": "address",
          "name": "to",
          "type": "address"
        },
        {
          "internalType": "uint256",
          "name": "tokenId",
          "type": "uint256"
        }
      ],
      "name": "transferFrom",
      "outputs": [],
      "stateMutability": "nonpayable",
      "type": "function"
    },
    {
      "inputs": [
        {
          "internalType": "uint256",
          "name": "_listingFeePercent",
          "type": "uint256"
        }
      ],
      "name": "updateListingFeePercent",
      "outputs": [],
      "stateMutability": "nonpayable",
      "type": "function"
    }
  ],
  "bytecode": "0x608060405260146008553480156200001657600080fd5b506040518060400160405280600881526020017f4e465453544f52450000000000000000000000000000000000000000000000008152506040518060400160405280600481526020017f4e4654530000000000000000000000000000000000000000000000000000000081525081600090816200009491906200036a565b508060019081620000a691906200036a565b50505033600760006101000a81548173ffffffffffffffffffffffffffffffffffffffff021916908373ffffffffffffffffffffffffffffffffffffffff16021790555062000451565b600081519050919050565b7f4e487b7100000000000000000000000000000000000000000000000000000000600052604160045260246000fd5b7f4e487b7100000000000000000000000000000000000000000000000000000000600052602260045260246000fd5b600060028204905060018216806200017257607f821691505b6020821081036200018857620001876200012a565b5b50919050565b60008190508160005260206000209050919050565b60006020601f8301049050919050565b600082821b905092915050565b600060088302620001f27fffffffffffffffffffffffffffffffffffffffffffffffffffffffffffffffff82620001b3565b620001fe8683620001b3565b95508019841693508086168417925050509392505050565b6000819050919050565b6000819050919050565b60006200024b620002456200023f8462000216565b62000220565b62000216565b9050919050565b6000819050919050565b62000267836200022a565b6200027f620002768262000252565b848454620001c0565b825550505050565b600090565b6200029662000287565b620002a38184846200025c565b505050565b5b81811015620002cb57620002bf6000826200028c565b600181019050620002a9565b5050565b601f8211156200031a57620002e4816200018e565b620002ef84620001a3565b81016020851015620002ff578190505b620003176200030e85620001a3565b830182620002a8565b50505b505050565b600082821c905092915050565b60006200033f600019846008026200031f565b1980831691505092915050565b60006200035a83836200032c565b9150826002028217905092915050565b6200037582620000f0565b67ffffffffffffffff811115620003915762000390620000fb565b5b6200039d825462000159565b620003aa828285620002cf565b600060209050601f831160018114620003e25760008415620003cd578287015190505b620003d985826200034c565b86555062000449565b601f198416620003f2866200018e565b60005b828110156200041c57848901518255600182019150602085019450602081019050620003f5565b868310156200043c578489015162000438601f8916826200032c565b8355505b6001600288020188555050505b505050505050565b6137d580620004616000396000f3fe6080604052600436106101405760003560e01c8063629cb2e4116100b65780639b1225c41161006f5780639b1225c414610486578063a22cb465146104a2578063ac6a9185146104cb578063b88d4fde146104f4578063c87b56dd1461051d578063e985e9c51461055a57610140565b8063629cb2e41461034e5780636352211e14610379578063650025a0146103b657806370a08231146103e157806372b3b6201461041e57806395d89b411461045b57610140565b80630ea59c4b116101085780630ea59c4b1461023e57806323b872dd1461027b57806342842e0e146102a45780634b58ffaa146102cd57806356189236146102f85780636151ff2e1461032357610140565b806301ffc9a71461014557806306fc12451461018257806306fdde03146101ad578063081812fc146101d8578063095ea7b314610215575b600080fd5b34801561015157600080fd5b5061016c6004803603810190610167919061276e565b610597565b60405161017991906127b6565b60405180910390f35b34801561018e57600080fd5b506101976105f8565b6040516101a491906127ea565b60405180910390f35b3480156101b957600080fd5b506101c2610602565b6040516101cf9190612895565b60405180910390f35b3480156101e457600080fd5b506101ff60048036038101906101fa91906128e3565b610694565b60405161020c9190612951565b60405180910390f35b34801561022157600080fd5b5061023c60048036038101906102379190612998565b6106b0565b005b34801561024a57600080fd5b50610265600480360381019061026091906128e3565b6106c6565b6040516102729190612a7f565b60405180910390f35b34801561028757600080fd5b506102a2600480360381019061029d9190612a9a565b6107ce565b005b3480156102b057600080fd5b506102cb60048036038101906102c69190612a9a565b6108d0565b005b3480156102d957600080fd5b506102e26108f0565b6040516102ef9190612c04565b60405180910390f35b34801561030457600080fd5b5061030d610b48565b60405161031a91906127ea565b60405180910390f35b34801561032f57600080fd5b50610338610b52565b60405161034591906127ea565b60405180910390f35b34801561035a57600080fd5b50610363610b58565b6040516103709190612c04565b60405180910390f35b34801561038557600080fd5b506103a0600480360381019061039b91906128e3565b610e2f565b6040516103ad9190612951565b60405180910390f35b3480156103c257600080fd5b506103cb610e41565b6040516103d89190612c35565b60405180910390f35b3480156103ed57600080fd5b5061040860048036038101906104039190612c50565b610e67565b60405161041591906127ea565b60405180910390f35b34801561042a57600080fd5b5061044560048036038101906104409190612db2565b610f21565b60405161045291906127ea565b60405180910390f35b34801561046757600080fd5b50610470610fac565b60405161047d9190612895565b60405180910390f35b6104a0600480360381019061049b91906128e3565b61103e565b005b3480156104ae57600080fd5b506104c960048036038101906104c49190612e3a565b611270565b005b3480156104d757600080fd5b506104f260048036038101906104ed91906128e3565b611286565b005b34801561050057600080fd5b5061051b60048036038101906105169190612f1b565b611320565b005b34801561052957600080fd5b50610544600480360381019061053f91906128e3565b61133d565b6040516105519190612895565b60405180910390f35b34801561056657600080fd5b50610581600480360381019061057c9190612f9e565b611450565b60405161058e91906127b6565b60405180910390f35b6000634906490660e01b7bffffffffffffffffffffffffffffffffffffffffffffffffffffffff1916827bffffffffffffffffffffffffffffffffffffffffffffffffffffffff191614806105f157506105f0826114e4565b5b9050919050565b6000600854905090565b6060600080546106119061300d565b80601f016020809104026020016040519081016040528092919081815260200182805461063d9061300d565b801561068a5780601f1061065f5761010080835404028352916020019161068a565b820191906000526020600020905b81548152906001019060200180831161066d57829003601f168201915b5050505050905090565b600061069f826115c6565b506106a98261164e565b9050919050565b6106c282826106bd61168b565b611693565b5050565b6106ce6126a5565b600b60008381526020019081526020016000206040518060a0016040529081600082015481526020016001820160009054906101000a900473ffffffffffffffffffffffffffffffffffffffff1673ffffffffffffffffffffffffffffffffffffffff1673ffffffffffffffffffffffffffffffffffffffff1681526020016002820160009054906101000a900473ffffffffffffffffffffffffffffffffffffffff1673ffffffffffffffffffffffffffffffffffffffff1673ffffffffffffffffffffffffffffffffffffffff168152602001600382015481526020016004820160009054906101000a900460ff1615151515815250509050919050565b600073ffffffffffffffffffffffffffffffffffffffff168273ffffffffffffffffffffffffffffffffffffffff16036108405760006040517f64a0ae920000000000000000000000000000000000000000000000000000000081526004016108379190612951565b60405180910390fd5b6000610854838361084f61168b565b6116a5565b90508373ffffffffffffffffffffffffffffffffffffffff168173ffffffffffffffffffffffffffffffffffffffff16146108ca578382826040517f64283d7b0000000000000000000000000000000000000000000000000000000081526004016108c19392919061303e565b60405180910390fd5b50505050565b6108eb83838360405180602001604052806000815250611320565b505050565b60606000600954905060008060005b8381101561095857600b600060018361091891906130a4565b815260200190815260200160002060040160009054906101000a900460ff161561094b578280610947906130d8565b9350505b80806001019150506108ff565b5060008267ffffffffffffffff81111561097557610974612c87565b5b6040519080825280602002602001820160405280156109ae57816020015b61099b6126a5565b8152602001906001900390816109935790505b50905060005b84811015610b3d57600b60006001836109cd91906130a4565b815260200190815260200160002060040160009054906101000a900460ff1615610b30576000600182610a0091906130a4565b90506000600b60008381526020019081526020016000209050806040518060a0016040529081600082015481526020016001820160009054906101000a900473ffffffffffffffffffffffffffffffffffffffff1673ffffffffffffffffffffffffffffffffffffffff1673ffffffffffffffffffffffffffffffffffffffff1681526020016002820160009054906101000a900473ffffffffffffffffffffffffffffffffffffffff1673ffffffffffffffffffffffffffffffffffffffff1673ffffffffffffffffffffffffffffffffffffffff168152602001600382015481526020016004820160009054906101000a900460ff161515151581525050848681518110610b1357610b12613120565b5b6020026020010181905250600185610b2b91906130a4565b945050505b80806001019150506109b4565b508094505050505090565b6000600954905090565b60085481565b60606000600954905060008060005b83811015610c00573373ffffffffffffffffffffffffffffffffffffffff16600b6000600184610b9791906130a4565b815260200190815260200160002060010160009054906101000a900473ffffffffffffffffffffffffffffffffffffffff1673ffffffffffffffffffffffffffffffffffffffff1603610bf3578280610bef906130d8565b9350505b8080600101915050610b67565b5060008267ffffffffffffffff811115610c1d57610c1c612c87565b5b604051908082528060200260200182016040528015610c5657816020015b610c436126a5565b815260200190600190039081610c3b5790505b50905060005b84811015610e24573373ffffffffffffffffffffffffffffffffffffffff16600b6000600184610c8c91906130a4565b815260200190815260200160002060010160009054906101000a900473ffffffffffffffffffffffffffffffffffffffff1673ffffffffffffffffffffffffffffffffffffffff1603610e17576000600182610ce891906130a4565b90506000600b60008381526020019081526020016000209050806040518060a0016040529081600082015481526020016001820160009054906101000a900473ffffffffffffffffffffffffffffffffffffffff1673ffffffffffffffffffffffffffffffffffffffff1673ffffffffffffffffffffffffffffffffffffffff1681526020016002820160009054906101000a900473ffffffffffffffffffffffffffffffffffffffff1673ffffffffffffffffffffffffffffffffffffffff1673ffffffffffffffffffffffffffffffffffffffff168152602001600382015481526020016004820160009054906101000a900460ff161515151581525050848681518110610dfb57610dfa613120565b5b60200260200101819052508480610e11906130d8565b95505050505b8080600101915050610c5c565b508094505050505090565b6000610e3a826115c6565b9050919050565b600760009054906101000a900473ffffffffffffffffffffffffffffffffffffffff1681565b60008073ffffffffffffffffffffffffffffffffffffffff168273ffffffffffffffffffffffffffffffffffffffff1603610eda5760006040517f89c62b64000000000000000000000000000000000000000000000000000000008152600401610ed19190612951565b60405180910390fd5b600360008373ffffffffffffffffffffffffffffffffffffffff1673ffffffffffffffffffffffffffffffffffffffff168152602001908152602001600020549050919050565b6000808211610f65576040517f08c379a0000000000000000000000000000000000000000000000000000000008152600401610f5c9061319b565b60405180910390fd5b60096000815480929190610f78906130d8565b919050555060006009549050610f8e33826118bf565b610f9881856118dd565b610fa28184611939565b8091505092915050565b606060018054610fbb9061300d565b80601f0160208091040260200160405190810160405280929190818152602001828054610fe79061300d565b80156110345780601f1061100957610100808354040283529160200191611034565b820191906000526020600020905b81548152906001019060200180831161101757829003601f168201915b5050505050905090565b6000600b6000838152602001908152602001600020905060008160030154905060008260020160009054906101000a900473ffffffffffffffffffffffffffffffffffffffff1690508134146110c9576040517f08c379a00000000000000000000000000000000000000000000000000000000081526004016110c09061322d565b60405180910390fd5b338360010160006101000a81548173ffffffffffffffffffffffffffffffffffffffff021916908373ffffffffffffffffffffffffffffffffffffffff16021790555060008360020160006101000a81548173ffffffffffffffffffffffffffffffffffffffff021916908373ffffffffffffffffffffffffffffffffffffffff16021790555060008360040160006101000a81548160ff021916908315150217905550600a6000815480929190611180906130d8565b9190505550611190813386611a6b565b60006064600854846111a2919061324d565b6111ac91906132be565b9050600760009054906101000a900473ffffffffffffffffffffffffffffffffffffffff1673ffffffffffffffffffffffffffffffffffffffff166108fc829081150290604051600060405180830381858888f19350505050158015611216573d6000803e3d6000fd5b508173ffffffffffffffffffffffffffffffffffffffff166108fc823461123d91906132ef565b9081150290604051600060405180830381858888f19350505050158015611268573d6000803e3d6000fd5b505050505050565b61128261127b61168b565b8383611bd8565b5050565b600760009054906101000a900473ffffffffffffffffffffffffffffffffffffffff1673ffffffffffffffffffffffffffffffffffffffff163373ffffffffffffffffffffffffffffffffffffffff1614611316576040517f08c379a000000000000000000000000000000000000000000000000000000000815260040161130d90613395565b60405180910390fd5b8060088190555050565b61132b8484846107ce565b61133784848484611d47565b50505050565b6060611348826115c6565b5060006006600084815260200190815260200160002080546113699061300d565b80601f01602080910402602001604051908101604052809291908181526020018280546113959061300d565b80156113e25780601f106113b7576101008083540402835291602001916113e2565b820191906000526020600020905b8154815290600101906020018083116113c557829003601f168201915b5050505050905060006113f3611efe565b9050600081510361140857819250505061144b565b60008251111561143d5780826040516020016114259291906133f1565b6040516020818303038152906040529250505061144b565b61144684611f15565b925050505b919050565b6000600560008473ffffffffffffffffffffffffffffffffffffffff1673ffffffffffffffffffffffffffffffffffffffff16815260200190815260200160002060008373ffffffffffffffffffffffffffffffffffffffff1673ffffffffffffffffffffffffffffffffffffffff16815260200190815260200160002060009054906101000a900460ff16905092915050565b60007f80ac58cd000000000000000000000000000000000000000000000000000000007bffffffffffffffffffffffffffffffffffffffffffffffffffffffff1916827bffffffffffffffffffffffffffffffffffffffffffffffffffffffff191614806115af57507f5b5e139f000000000000000000000000000000000000000000000000000000007bffffffffffffffffffffffffffffffffffffffffffffffffffffffff1916827bffffffffffffffffffffffffffffffffffffffffffffffffffffffff1916145b806115bf57506115be82611f7e565b5b9050919050565b6000806115d283611fe8565b9050600073ffffffffffffffffffffffffffffffffffffffff168173ffffffffffffffffffffffffffffffffffffffff160361164557826040517f7e27328900000000000000000000000000000000000000000000000000000000815260040161163c91906127ea565b60405180910390fd5b80915050919050565b60006004600083815260200190815260200160002060009054906101000a900473ffffffffffffffffffffffffffffffffffffffff169050919050565b600033905090565b6116a08383836001612025565b505050565b6000806116b184611fe8565b9050600073ffffffffffffffffffffffffffffffffffffffff168373ffffffffffffffffffffffffffffffffffffffff16146116f3576116f28184866121ea565b5b600073ffffffffffffffffffffffffffffffffffffffff168173ffffffffffffffffffffffffffffffffffffffff161461178457611735600085600080612025565b6001600360008373ffffffffffffffffffffffffffffffffffffffff1673ffffffffffffffffffffffffffffffffffffffff168152602001908152602001600020600082825403925050819055505b600073ffffffffffffffffffffffffffffffffffffffff168573ffffffffffffffffffffffffffffffffffffffff1614611807576001600360008773ffffffffffffffffffffffffffffffffffffffff1673ffffffffffffffffffffffffffffffffffffffff168152602001908152602001600020600082825401925050819055505b846002600086815260200190815260200160002060006101000a81548173ffffffffffffffffffffffffffffffffffffffff021916908373ffffffffffffffffffffffffffffffffffffffff160217905550838573ffffffffffffffffffffffffffffffffffffffff168273ffffffffffffffffffffffffffffffffffffffff167fddf252ad1be2c89b69c2b068fc378daa952ba7f163c4a11628f55a4df523b3ef60405160405180910390a4809150509392505050565b6118d98282604051806020016040528060008152506122ae565b5050565b806006600084815260200190815260200160002090816118fd91906135c1565b507ff8e1a15aba9398e019f0b49df1a4fde98ee17ae345cb5f6b5e2c27f5033e8ce78260405161192d91906127ea565b60405180910390a15050565b6040518060a001604052808381526020013373ffffffffffffffffffffffffffffffffffffffff1681526020013373ffffffffffffffffffffffffffffffffffffffff16815260200182815260200160011515815250600b60008481526020019081526020016000206000820151816000015560208201518160010160006101000a81548173ffffffffffffffffffffffffffffffffffffffff021916908373ffffffffffffffffffffffffffffffffffffffff16021790555060408201518160020160006101000a81548173ffffffffffffffffffffffffffffffffffffffff021916908373ffffffffffffffffffffffffffffffffffffffff1602179055506060820151816003015560808201518160040160006101000a81548160ff0219169083151502179055509050505050565b600073ffffffffffffffffffffffffffffffffffffffff168273ffffffffffffffffffffffffffffffffffffffff1603611add5760006040517f64a0ae92000000000000000000000000000000000000000000000000000000008152600401611ad49190612951565b60405180910390fd5b6000611aeb838360006116a5565b9050600073ffffffffffffffffffffffffffffffffffffffff168173ffffffffffffffffffffffffffffffffffffffff1603611b5e57816040517f7e273289000000000000000000000000000000000000000000000000000000008152600401611b5591906127ea565b60405180910390fd5b8373ffffffffffffffffffffffffffffffffffffffff168173ffffffffffffffffffffffffffffffffffffffff1614611bd2578382826040517f64283d7b000000000000000000000000000000000000000000000000000000008152600401611bc99392919061303e565b60405180910390fd5b50505050565b600073ffffffffffffffffffffffffffffffffffffffff168273ffffffffffffffffffffffffffffffffffffffff1603611c4957816040517f5b08ba18000000000000000000000000000000000000000000000000000000008152600401611c409190612951565b60405180910390fd5b80600560008573ffffffffffffffffffffffffffffffffffffffff1673ffffffffffffffffffffffffffffffffffffffff16815260200190815260200160002060008473ffffffffffffffffffffffffffffffffffffffff1673ffffffffffffffffffffffffffffffffffffffff16815260200190815260200160002060006101000a81548160ff0219169083151502179055508173ffffffffffffffffffffffffffffffffffffffff168373ffffffffffffffffffffffffffffffffffffffff167f17307eab39ab6107e8899845ad3d59bd9653f200f220920489ca2b5937696c3183604051611d3a91906127b6565b60405180910390a3505050565b60008373ffffffffffffffffffffffffffffffffffffffff163b1115611ef8578273ffffffffffffffffffffffffffffffffffffffff1663150b7a02611d8b61168b565b8685856040518563ffffffff1660e01b8152600401611dad94939291906136e8565b6020604051808303816000875af1925050508015611de957506040513d601f19601f82011682018060405250810190611de69190613749565b60015b611e6d573d8060008114611e19576040519150601f19603f3d011682016040523d82523d6000602084013e611e1e565b606091505b506000815103611e6557836040517f64a0ae92000000000000000000000000000000000000000000000000000000008152600401611e5c9190612951565b60405180910390fd5b805181602001fd5b63150b7a0260e01b7bffffffffffffffffffffffffffffffffffffffffffffffffffffffff1916817bffffffffffffffffffffffffffffffffffffffffffffffffffffffff191614611ef657836040517f64a0ae92000000000000000000000000000000000000000000000000000000008152600401611eed9190612951565b60405180910390fd5b505b50505050565b606060405180602001604052806000815250905090565b6060611f20826115c6565b506000611f2b611efe565b90506000815111611f4b5760405180602001604052806000815250611f76565b80611f55846122ca565b604051602001611f669291906133f1565b6040516020818303038152906040525b915050919050565b60007f01ffc9a7000000000000000000000000000000000000000000000000000000007bffffffffffffffffffffffffffffffffffffffffffffffffffffffff1916827bffffffffffffffffffffffffffffffffffffffffffffffffffffffff1916149050919050565b60006002600083815260200190815260200160002060009054906101000a900473ffffffffffffffffffffffffffffffffffffffff169050919050565b808061205e5750600073ffffffffffffffffffffffffffffffffffffffff168273ffffffffffffffffffffffffffffffffffffffff1614155b1561219257600061206e846115c6565b9050600073ffffffffffffffffffffffffffffffffffffffff168373ffffffffffffffffffffffffffffffffffffffff16141580156120d957508273ffffffffffffffffffffffffffffffffffffffff168173ffffffffffffffffffffffffffffffffffffffff1614155b80156120ec57506120ea8184611450565b155b1561212e57826040517fa9fbf51f0000000000000000000000000000000000000000000000000000000081526004016121259190612951565b60405180910390fd5b811561219057838573ffffffffffffffffffffffffffffffffffffffff168273ffffffffffffffffffffffffffffffffffffffff167f8c5be1e5ebec7d5bd14f71427d1e84f3dd0314c0f7b2291e5b200ac8c7c3b92560405160405180910390a45b505b836004600085815260200190815260200160002060006101000a81548173ffffffffffffffffffffffffffffffffffffffff021916908373ffffffffffffffffffffffffffffffffffffffff16021790555050505050565b6121f5838383612398565b6122a957600073ffffffffffffffffffffffffffffffffffffffff168373ffffffffffffffffffffffffffffffffffffffff160361226a57806040517f7e27328900000000000000000000000000000000000000000000000000000000815260040161226191906127ea565b60405180910390fd5b81816040517f177e802f0000000000000000000000000000000000000000000000000000000081526004016122a0929190613776565b60405180910390fd5b505050565b6122b88383612459565b6122c56000848484611d47565b505050565b6060600060016122d984612552565b01905060008167ffffffffffffffff8111156122f8576122f7612c87565b5b6040519080825280601f01601f19166020018201604052801561232a5781602001600182028036833780820191505090505b509050600082602001820190505b60011561238d578080600190039150507f3031323334353637383961626364656600000000000000000000000000000000600a86061a8153600a85816123815761238061328f565b5b04945060008503612338575b819350505050919050565b60008073ffffffffffffffffffffffffffffffffffffffff168373ffffffffffffffffffffffffffffffffffffffff161415801561245057508273ffffffffffffffffffffffffffffffffffffffff168473ffffffffffffffffffffffffffffffffffffffff16148061241157506124108484611450565b5b8061244f57508273ffffffffffffffffffffffffffffffffffffffff166124378361164e565b73ffffffffffffffffffffffffffffffffffffffff16145b5b90509392505050565b600073ffffffffffffffffffffffffffffffffffffffff168273ffffffffffffffffffffffffffffffffffffffff16036124cb5760006040517f64a0ae920000000000000000000000000000000000000000000000000000000081526004016124c29190612951565b60405180910390fd5b60006124d9838360006116a5565b9050600073ffffffffffffffffffffffffffffffffffffffff168173ffffffffffffffffffffffffffffffffffffffff161461254d5760006040517f73c6ac6e0000000000000000000000000000000000000000000000000000000081526004016125449190612951565b60405180910390fd5b505050565b600080600090507a184f03e93ff9f4daa797ed6e38ed64bf6a1f01000000000000000083106125b0577a184f03e93ff9f4daa797ed6e38ed64bf6a1f01000000000000000083816125a6576125a561328f565b5b0492506040810190505b6d04ee2d6d415b85acef810000000083106125ed576d04ee2d6d415b85acef810000000083816125e3576125e261328f565b5b0492506020810190505b662386f26fc10000831061261c57662386f26fc1000083816126125761261161328f565b5b0492506010810190505b6305f5e1008310612645576305f5e100838161263b5761263a61328f565b5b0492506008810190505b612710831061266a5761271083816126605761265f61328f565b5b0492506004810190505b6064831061268d57606483816126835761268261328f565b5b0492506002810190505b600a831061269c576001810190505b80915050919050565b6040518060a0016040528060008152602001600073ffffffffffffffffffffffffffffffffffffffff168152602001600073ffffffffffffffffffffffffffffffffffffffff168152602001600081526020016000151581525090565b6000604051905090565b600080fd5b600080fd5b60007fffffffff0000000000000000000000000000000000000000000000000000000082169050919050565b61274b81612716565b811461275657600080fd5b50565b60008135905061276881612742565b92915050565b6000602082840312156127845761278361270c565b5b600061279284828501612759565b91505092915050565b60008115159050919050565b6127b08161279b565b82525050565b60006020820190506127cb60008301846127a7565b92915050565b6000819050919050565b6127e4816127d1565b82525050565b60006020820190506127ff60008301846127db565b92915050565b600081519050919050565b600082825260208201905092915050565b60005b8381101561283f578082015181840152602081019050612824565b60008484015250505050565b6000601f19601f8301169050919050565b600061286782612805565b6128718185612810565b9350612881818560208601612821565b61288a8161284b565b840191505092915050565b600060208201905081810360008301526128af818461285c565b905092915050565b6128c0816127d1565b81146128cb57600080fd5b50565b6000813590506128dd816128b7565b92915050565b6000602082840312156128f9576128f861270c565b5b6000612907848285016128ce565b91505092915050565b600073ffffffffffffffffffffffffffffffffffffffff82169050919050565b600061293b82612910565b9050919050565b61294b81612930565b82525050565b60006020820190506129666000830184612942565b92915050565b61297581612930565b811461298057600080fd5b50565b6000813590506129928161296c565b92915050565b600080604083850312156129af576129ae61270c565b5b60006129bd85828601612983565b92505060206129ce858286016128ce565b9150509250929050565b6129e1816127d1565b82525050565b60006129f282612910565b9050919050565b612a02816129e7565b82525050565b612a118161279b565b82525050565b60a082016000820151612a2d60008501826129d8565b506020820151612a4060208501826129f9565b506040820151612a5360408501826129f9565b506060820151612a6660608501826129d8565b506080820151612a796080850182612a08565b50505050565b600060a082019050612a946000830184612a17565b92915050565b600080600060608486031215612ab357612ab261270c565b5b6000612ac186828701612983565b9350506020612ad286828701612983565b9250506040612ae3868287016128ce565b9150509250925092565b600081519050919050565b600082825260208201905092915050565b6000819050602082019050919050565b60a082016000820151612b2f60008501826129d8565b506020820151612b4260208501826129f9565b506040820151612b5560408501826129f9565b506060820151612b6860608501826129d8565b506080820151612b7b6080850182612a08565b50505050565b6000612b8d8383612b19565b60a08301905092915050565b6000602082019050919050565b6000612bb182612aed565b612bbb8185612af8565b9350612bc683612b09565b8060005b83811015612bf7578151612bde8882612b81565b9750612be983612b99565b925050600181019050612bca565b5085935050505092915050565b60006020820190508181036000830152612c1e8184612ba6565b905092915050565b612c2f816129e7565b82525050565b6000602082019050612c4a6000830184612c26565b92915050565b600060208284031215612c6657612c6561270c565b5b6000612c7484828501612983565b91505092915050565b600080fd5b600080fd5b7f4e487b7100000000000000000000000000000000000000000000000000000000600052604160045260246000fd5b612cbf8261284b565b810181811067ffffffffffffffff82111715612cde57612cdd612c87565b5b80604052505050565b6000612cf1612702565b9050612cfd8282612cb6565b919050565b600067ffffffffffffffff821115612d1d57612d1c612c87565b5b612d268261284b565b9050602081019050919050565b82818337600083830152505050565b6000612d55612d5084612d02565b612ce7565b905082815260208101848484011115612d7157612d70612c82565b5b612d7c848285612d33565b509392505050565b600082601f830112612d9957612d98612c7d565b5b8135612da9848260208601612d42565b91505092915050565b60008060408385031215612dc957612dc861270c565b5b600083013567ffffffffffffffff811115612de757612de6612711565b5b612df385828601612d84565b9250506020612e04858286016128ce565b9150509250929050565b612e178161279b565b8114612e2257600080fd5b50565b600081359050612e3481612e0e565b92915050565b60008060408385031215612e5157612e5061270c565b5b6000612e5f85828601612983565b9250506020612e7085828601612e25565b9150509250929050565b600067ffffffffffffffff821115612e9557612e94612c87565b5b612e9e8261284b565b9050602081019050919050565b6000612ebe612eb984612e7a565b612ce7565b905082815260208101848484011115612eda57612ed9612c82565b5b612ee5848285612d33565b509392505050565b600082601f830112612f0257612f01612c7d565b5b8135612f12848260208601612eab565b91505092915050565b60008060008060808587031215612f3557612f3461270c565b5b6000612f4387828801612983565b9450506020612f5487828801612983565b9350506040612f65878288016128ce565b925050606085013567ffffffffffffffff811115612f8657612f85612711565b5b612f9287828801612eed565b91505092959194509250565b60008060408385031215612fb557612fb461270c565b5b6000612fc385828601612983565b9250506020612fd485828601612983565b9150509250929050565b7f4e487b7100000000000000000000000000000000000000000000000000000000600052602260045260246000fd5b6000600282049050600182168061302557607f821691505b60208210810361303857613037612fde565b5b50919050565b60006060820190506130536000830186612942565b61306060208301856127db565b61306d6040830184612942565b949350505050565b7f4e487b7100000000000000000000000000000000000000000000000000000000600052601160045260246000fd5b60006130af826127d1565b91506130ba836127d1565b92508282019050808211156130d2576130d1613075565b5b92915050565b60006130e3826127d1565b91507fffffffffffffffffffffffffffffffffffffffffffffffffffffffffffffffff820361311557613114613075565b5b600182019050919050565b7f4e487b7100000000000000000000000000000000000000000000000000000000600052603260045260246000fd5b7f5072696365206d7573742062652067726561746572207468616e207a65726f00600082015250565b6000613185601f83612810565b91506131908261314f565b602082019050919050565b600060208201905081810360008301526131b481613178565b9050919050565b7f506c65617365207375626d6974207468652061736b696e67207072696365207460008201527f6f20636f6d706c65746520746865207075726368617365000000000000000000602082015250565b6000613217603783612810565b9150613222826131bb565b604082019050919050565b600060208201905081810360008301526132468161320a565b9050919050565b6000613258826127d1565b9150613263836127d1565b9250828202613271816127d1565b9150828204841483151761328857613287613075565b5b5092915050565b7f4e487b7100000000000000000000000000000000000000000000000000000000600052601260045260246000fd5b60006132c9826127d1565b91506132d4836127d1565b9250826132e4576132e361328f565b5b828204905092915050565b60006132fa826127d1565b9150613305836127d1565b925082820390508181111561331d5761331c613075565b5b92915050565b7f4f6e6c79206f776e65722063616e2063616c6c20746869732066756e6374696f60008201527f6e00000000000000000000000000000000000000000000000000000000000000602082015250565b600061337f602183612810565b915061338a82613323565b604082019050919050565b600060208201905081810360008301526133ae81613372565b9050919050565b600081905092915050565b60006133cb82612805565b6133d581856133b5565b93506133e5818560208601612821565b80840191505092915050565b60006133fd82856133c0565b915061340982846133c0565b91508190509392505050565b60008190508160005260206000209050919050565b60006020601f8301049050919050565b600082821b905092915050565b6000600883026134777fffffffffffffffffffffffffffffffffffffffffffffffffffffffffffffffff8261343a565b613481868361343a565b95508019841693508086168417925050509392505050565b6000819050919050565b60006134be6134b96134b4846127d1565b613499565b6127d1565b9050919050565b6000819050919050565b6134d8836134a3565b6134ec6134e4826134c5565b848454613447565b825550505050565b600090565b6135016134f4565b61350c8184846134cf565b505050565b5b81811015613530576135256000826134f9565b600181019050613512565b5050565b601f8211156135755761354681613415565b61354f8461342a565b8101602085101561355e578190505b61357261356a8561342a565b830182613511565b50505b505050565b600082821c905092915050565b60006135986000198460080261357a565b1980831691505092915050565b60006135b18383613587565b9150826002028217905092915050565b6135ca82612805565b67ffffffffffffffff8111156135e3576135e2612c87565b5b6135ed825461300d565b6135f8828285613534565b600060209050601f83116001811461362b5760008415613619578287015190505b61362385826135a5565b86555061368b565b601f19841661363986613415565b60005b828110156136615784890151825560018201915060208501945060208101905061363c565b8683101561367e578489015161367a601f891682613587565b8355505b6001600288020188555050505b505050505050565b600081519050919050565b600082825260208201905092915050565b60006136ba82613693565b6136c4818561369e565b93506136d4818560208601612821565b6136dd8161284b565b840191505092915050565b60006080820190506136fd6000830187612942565b61370a6020830186612942565b61371760408301856127db565b818103606083015261372981846136af565b905095945050505050565b60008151905061374381612742565b92915050565b60006020828403121561375f5761375e61270c565b5b600061376d84828501613734565b91505092915050565b600060408201905061378b6000830185612942565b61379860208301846127db565b939250505056fea2646970667358221220964214a383ed8ae77a7bb4ffc51f222e467328f3e2ffcbee1167ce1f521d9ab464736f6c63430008180033",
  "linkReferences": {},
  "deployedLinkReferences": {}
}